:020000040000FA
:0600000044EF09F01200BC
:020006001200E6
:060008001CEF00F01200E5
:02000E00D0829E
:04001000D08012008A
:04001400BD6A1200AF
:060018009AEF00F0120057
:02001E000200DE
:10002000A41200003A00000006000000A212000026
:0800300048000000020000007E
:08003800DACFE4FFE2CFDAFFAA
:10004000E9CFE4FFEACFE4FFE65287EC06F081E96E
:1000500041E83EC089FF00013E51100A2CE0180A19
:1000600021E00C0A16E0060A0BE0030A2DE1DAECA7
:1000700006F0120FE96E000EBBEC06F0020E23D064
:10008000DAEC06F0100FE96E000EBBEC06F0040E81
:100090001AD0DAEC06F00E0FE96E000EBBEC06F09B
:1000A000080E11D0DAEC06F00C0FE96E000EBBEC76
:1000B00006F0100E08D0DAEC06F0140FE96E000E10
:1000C000BBEC06F0010E3E6F016A8AB002D0050E4D
:1000D00001268AB202D0050E01268AB402D0050E8E
:1000E00001268AB602D0050E01268AB802D0050E76
:1000F00001268ABA02D0050E01268ABC02D0050E5E
:100100000126F29401EB46F00001476B46BF4769B8
:10011000310ED8804657000E475746C0D6FF42E9F9
:10012000E7CFD9FFE552E5CFEAFFE5CFE9FFE5CF1D
:10013000DAFF1100D8CFE4FFE0CFE4FFE46EDACFBE
:10014000E4FFE652000118C044F0456B18C0CFFF31
:1001500000011751CE6E092B010E086F192B0A0EE4
:10016000195D03E1196B010E076F9E90E552E5CF13
:10017000DAFFE550E5CFE0FFE5CFD8FF100007D864
:1001800000010851FDE0086BBBD852D9F9D707EC44
:1001900000F00400D38CD38AD3989B8CD390D39255
:1001A000D39E640EE66E59EC06F041E90F0EC112C3
:1001B00001D81200D9CFE6FFE1CFD9FF81E941E8AC
:1001C0000400805081248224E66EE66AA7EC08F0E1
:1001D00042E9F19E926A936ACB0E946E896A8A6AAA
:1001E0008B6A0001C00E176F3E0E186FD50EE66EBB
:1001F000E7EC08F041E9F50EE66EC7EC08F041E9DE
:10020000060EE66E02EC09F041E93C0EE66E1CECCF
:1002100009F041E9C80EE66EE66A5FEC08F042E9D3
:1002200032EC09F00001020E0A6FD08EF1849F902B
:10023000310ED66E3E0ECF6EC00ECE6EF28CF28EAA
:100240000001146B14C012F014C010F014C00EF0B2
:1002500014C00CF00001156B15C013F015C011F09F
:1002600015C00FF015C00DF00001166B3DC01CF05D
:1002700000011D6B1E6B1CAF02D01D691E69C00EF4
:1002800000011C273E0E00011D23000E00011E234D
:100290001CC017F01DC018F000010B6B00013B6B78
:1002A0000001046B056B040EE66E000EE66EEFECCB
:1002B00005F042E90001046F056B060EE66E000EC4
:1002C000E66EEFEC05F042E900011C6F1CC01DF06A
:1002D00000011C6B00011C510001041300011D51A1
:1002E000000105130001041D01E1051D03E10001EA
:1002F000046B056B00013C6B42E9E7CFD9FF1200AC
:10030000D9CFE6FFE1CFD9FF81E942E8040000013F
:100310000B2B00013A5101E087D082BC41D0000193
:100320003FA305D0020EE66EBCEC05F041E982BEAB
:1003300034D0050EE66EBCEC05F041E90001046B1B
:10034000056B0001010E3B6F04C0E6FF040EE66E74
:10035000000EE66ED4EC05F043E9000105C01CF088
:100360001D6B1CC0E6FF060EE66E000EE66ED4ECBA
:1003700005F043E90001010E166F0001080E156F2C
:10038000E66A04C0E6FF05C0E6FFB8DB43E982BECB
:1003900002D00400FCD70001156B00013F9302D08E
:1003A00000013F8382BE0FD000013FA102D00001B7
:1003B0001A6B020E00013B5D03E20001020E3B6F6F
:1003C00000013F912BD000013FB126D0030E000168
:1003D0003B5D22E20001030E3B6FAEEC08F0F3CF71
:1003E0001EF0F4CF1FF0070E00011E17000E0001D3
:1003F0001F1700011A51E82400011E2500011C6F7F
:10040000000E00011F2100011D6F050E00011C25BB
:100410000001016F0001006F00013F811E0E00010D
:100420001A5D02E200011A2B43E9E7CFD9FF12005F
:1004300087EC06F081E947E8050E00010B5D50E30B
:100440008B7A0B6B0A5105E00A070A5102E10AECAC
:1004500000F000013A5144E03A073A5102081FE225
:10046000E66A030EE66E340EF66E110E80EC06F0B0
:10047000020EE66E350EF66E110E80EC06F0010EE1
:10048000E66E370EF66E110E80EC06F0E66A380E58
:10049000F66E110EF76E0800F5CFE6FF17D0E66A8C
:1004A000030EE66E3A0EF66E110E80EC06F0020EAA
:1004B000E66E3B0EF66E110E80EC06F0010EE66E57
:1004C000310EA0EC06F0E66A300EE66E08EC07F09E
:1004D00000013A5101E0C6D10001146B1B6BC2D17F
:1004E00000013A5101E0BED100011B2B00013B513C
:1004F000040A01E17FD1070A01E1F0D0010A01E11C
:10050000D1D0030A01E1BBD0010A01E0ABD1000167
:10051000166B1B512D0A01E1AFD0010A01E1A8D0F1
:100520000B0A01E19FD00E0A01E19CD0020A01E111
:1005300099D00D0A01E19CD00E0A01E199D0020A7E
:1005400001E196D00B0A01E185D0030A01E182D0D6
:10055000010A01E17FD0070A01E17CD0010A01E133
:1005600079D03B0A01E17ED03E0A01E17BD03D0A11
:100570006CE0020A6AE0070A5EE0010A5CE0030A36
:100580005AE0010A58E0070A56E0170A51E01C0A2F
:100590004FE01D0A4BE01C0A49E01F0A45E01C0A17
:1005A00043E01D0A3DE01C0A3BE0130A34E0140A54
:1005B00032E0150A2DE0140A2BE0170A26E0140A8F
:1005C00024E0150A1FE0140A1DE0130A18E00C0AC3
:1005D00016E00D0A10E00C0A0EE00F0A09E00C0A02
:1005E00007E00D0A03E00C0A01E03CD1010E21D026
:1005F0000C6B010E17D00C6B0E6B010E0FD0DEDBF7
:10060000010E34D0DBDB200E31D0D8DB100E2ED023
:10061000D5DB080E2BD00C6B0E6B080E106F18D0AC
:100620000C6B080E0E6F13D0080E03D0040E01D011
:10063000020E0C6F0BD06E0E0C6F770E0E6F380E15
:10064000106F730E126F010E47D00C6B0E6B106B98
:10065000126B08D1780E0C6F3F0E0E6F380E106FB4
:100660006D0E04D0400E0C6F0E6F106F126FFAD02B
:10067000A5DB126B146BF6D00001010EB8D000019F
:10068000010E166FE66A04C0E6FF05C0E6FF36DA23
:1006900043E90C0E00011B5D01E2E4D01B6B00017D
:1006A0003B6BE0D00001166B030EE66E1BC0E6FF4D
:1006B0007CDB026E00010C6B0250020A08E0030AA8
:1006C00004E0010A08E1010E03D0400E01D0080E3B
:1006D0000E6F106F126F080E146FC4D00001166BEE
:1006E000040E146F015101E17DD0140E015D02E38F
:1006F000010E10D00C0E015D02E3020E0BD0060EAF
:10070000015D02E3030E06D0030E015D02E3040E59
:1007100001D0050E036E03501B5D01E2A3D0AEECC9
:1007200008F0F3CF1CF0F4CF1DF000011E6B1F6B1F
:100730001DAF02D01E691F691C51046E1D51056E4C
:100740001E51066E1F51076E04EB1CF0030E1C17A2
:100750001D6B1E6B1F6B1CC0E6FF04EB20F005EB4E
:1007600021F006EB22F007EB23F0040ED8902333A0
:10077000223321332033E806F9E10001030E246F10
:10078000256B266B276B24512017255121172651E5
:1007900022172751231720C0E6FF04EB28F005EBB2
:1007A00029F006EB2AF007EB2BF0080ED8902B333C
:1007B0002A3329332833E806F9E10001030E2C6FB0
:1007C0002D6B2E6B2F6B2C5128172D5129172E5165
:1007D0002A172F512B1728C0E6FFF3D843E9000151
:1007E00001073FD01B5114083DE20001040E3B6F8E
:1007F000000137D00001010E166F146F1B0528E1B0
:1008000035D8F3CF02F0F4CF03F0E66AF3CFE6FF7A
:10081000F4CFE6FF2FD943E9000102510427035129
:1008200005230251031114E004C0E6FF040EE66E36
:10083000000EE66EB9D943E9000105C01CF01D6B3E
:1008400005C0E6FF060EE66E000EE66EADD943E982
:10085000140E00011B5D06E30001010E3B6F000159
:10086000166F1B6B48E9E7CFD9FF120050DA81E918
:1008700047E8066A000E056E85EB04F085EB03F091
:10088000010E076E040E075C1BE2EA6A0734FE0BDA
:10089000E96EEA360C0EE926000EEA22EF507F0AD6
:1008A0000CE0220A08E0360A04E0220A07E1032AE3
:1008B00005D0042A03D0052A01D0062A072AE2D748
:1008C00006501EE0010A0EE0030A04E0010A28E1D6
:1008D000320E27D0045002E1055002E0140E21D060
:1008E0000A0E1FD0020E045C03E0020E055C02E15A
:1008F000050E17D004040AE0050408E0020E11D02A
:10090000030E045C03E0030E055C02E1030E09D054
:10091000020E045C03E0020E055C02E1010E01D050
:10092000000EF36EF46A48E9E7CFD9FF1200EFD961
:1009300085E9300E025C09E30250390806E3300E07
:10094000025C5EDA1EAF30D021D0410E025C0AE3B9
:1009500002505A0807E3410E025C0A0F51DA1EAF3B
:1009600023D014D02D0E025C08E1480EF66E110E55
:10097000F76EBFD91EAF18D009D0025009E13D0E65
:10098000F66E110EF76EB5D91EAF0ED01F690CD0E2
:1009900002EBF6FFF76AF6BEF7683D0EF626110E7B
:1009A000F722A7D91EBF1F69F9D9E552E750EF6EAC
:1009B000005006E031DA40DA1EBF1F69EFD9EF8E32
:1009C000ABD1A5D984E9E66A030EE66E0C0E0224CB
:1009D000B7D9020EE66E0C0E0124B2D9010EE66EF6
:1009E0000C0E0024ADD9E66AE66A12DA95D18FD9E9
:1009F00082E9005005E000010D8F0F8F118F138FDA
:100A00008BD185D984E948E80A0EE66E02EBE6FF51
:100A100036EC07F041E9E750300F076EE66AA3D9DC
:100A2000E66E02EBE6FFC1D9300F066EE66A020EF3
:100A3000E66E06EBE6FF010EABD936EC07F041E9B6
:100A4000E750300F056EE66A010EE66E05EBE6FF35
:100A50009FD9ABD9300FF7D9BCD9005004E0300E84
:100A60000001151303D0CF0E0001151749E9E7CF98
:100A7000D9FF12004CD984E949E8023402E350D985
:100A800001D00C6A9FD902E0000E01D0010EA5D959
:100A900002E0000E01D0010EAAD90DE0005002E0E4
:100AA000000E01D0010E50D902BE03D0015C000E31
:100AB000025820E31BD006D9076E005002E0000E5A
:100AC00001D0010EE66E030EE66E300E075C02E00A
:100AD000075001D0000EE66E010E7BD90A0ED890A9
:100AE00002BE03D0015C000E025804E3010EE66E64
:100AF0007EDF41E94AE9E7CFD9FF120008D984E94E
:100B000049E8023402E30CD901D00C6A5BD902E057
:100B1000000E01D0010E61D902E0000E01D0010EDD
:100B200066D90DE0005002E0000E01D0010E0CD994
:100B300002BE03D0015C000E025815E310D0C2D8EB
:100B4000076E005002E0000E01D0010EE66E0BD9D8
:100B5000D89002BE03D0015C000E025804E3010EDF
:100B6000E66E45DF41E94AE9E7CFD9FF12001E0EE4
:100B7000BE6EBF6E3C0E04D1CAD882E93C0EE66E52
:100B80001CEC09F041E9780EE66EE66A5FEC08F0CD
:100B900042E932EC09F00001010E0A6FBDD03C0EB3
:100BA000BE6EBF6E780EECD0D9CFE6FFE1CFD9FF95
:100BB00084E901EBA9FF00EBA8FFA69EA69CA684F2
:100BC000F29E550EA76EAA0EA76EA682F28E0400A4
:100BD000A6B2FDD7A69441E9E7CFD9FF120097D876
:100BE00083E900EBA9FFA69EA69CA680A85094D0FE
:100BF0008ED885E9FF0E0014E66E02EB1CF003EBC5
:100C00001DF0022A000E03221CC0E6FF1DC0E6FFF5
:100C1000CBDF43E981EB00F0016AFF0E0014E66EC2
:100C200002EBE6FF03EBE6FFBFDF43E975D06FD8C9
:100C300083E942E800EB1CF001EB1DF0002A000EF6
:100C400001221CC0E6FF1DC0E6FFC9DF42E9036EBA
:100C5000046A83EB04F0036A00EBE6FF01EBE6FFB6
:100C6000BEDF42E90312000E041203EBF3FF04EBB4
:100C7000F4FF43E9E7CFD9FF1200D9CFE6FFE1CF78
:100C8000D9FF82E900000000000000000000000021
:100C9000000004000006F6E141E9E7CFD9FF1200A9
:100CA00036D882E9640EE66E04D841E90006FAE11E
:100CB00033D02DD882E952D851D850D84FD8000619
:100CC000FAE12AD0B1D867EC07F0E552E5CF1DF084
:100CD000E7CF1CF0300E00011C2512007AD8A4D8F2
:100CE00064EC07F0E552E550026EE750016E000635
:100CF00012000800F550E66E8FD800011CEF07F0D7
:100D0000F76E0800F5CFE6FF83D8E66A1200D9CF68
:100D1000E6FFE1CFD9FF120041E9E7CFD9FF12008A
:100D2000010E0C6EE668E66801EBE6FF02EBE6FFFB
:100D3000A0EC07F0E552E550026EE750016E12009C
:100D4000E66E66D8E66A1200E66E030EE66E2D0EBB
:100D5000E66E010E3ED8010ED8901200FA0EE66E35
:100D60008CDF41E91200030EE66E07EBE6FF010E91
:100D700030D80A0E1200EA22EF1C8A6E000112001F
:100D8000CB6ECA840A0EE66E8BDF41E9CA9412006C
:100D900020D80A0EE66E01EBE6FF12001C511E255C
:100DA000E96E1D511F21EA6E120039EC07F041E98E
:100DB000E750120000011651EA6A12000C6B0E6B2C
:100DC000106B12007FDF3FD889DF7CDF056E00509B
:100DD0001200E66EACDD44E91200E66E010EE66E2E
:100DE00005EBE6FF7BDF6EDF066E00501200E66E5D
:100DF000020EE66E06EBE6FF010E70DF0C501200ED
:100E0000010FF76A3D0FF66E110EF72279EF06F02B
:100E1000E66A8DDD44E912000150020DF3CF1CF0AB
:100E2000F4CF1DF00C0E12000A0EE66EE66A01EB1E
:100E3000E6FF02EBE6FF12001C27000E1D2303EB6A
:100E40001EF01F6B1200046EE66AE66A04EBE6FF12
:040E5000010E12007D
:0C0E540042E8D9CFE6FFDACFE6FFE1CF9D
:100E6000D9FFE2CFDAFF86E9036A1200F3DF0380DD
:100E700003D0F0DF01D00382026A080EE76ED8903B
:100E8000013602360050025C02E3026E012AE72EB0
:100E9000F7D703B2120003B081EB00F003A082EB9E
:100EA00000F0E552E5CFDAFFE7CFD9FF43E91200C2
:100EB00043E8D9CFE6FFDACFE6FFE1CFD9FFE2CFB3
:100EC000DAFF89E9066A1200F3DF068001D0F0DF5D
:100ED00001AE71EF07F0006C011EE86A012206B056
:100EE000067E03AE79EF07F0026C031EE86A032268
:100EF000067EE5EC07F003BE9BEF07F006AE08D0D8
:100F0000026C031EE86A0322046C051EE86A0522CF
:100F100006B006D084EB00F085EB01F006A004D00B
:100F200082EB00F083EB01F0E552E5CFDAFFE7CF8B
:100F3000D9FF45E9000C06BE80EF07F0E9DFFF0CA2
:100F400044E8D9CFE6FFDACFE6FFE1CFD9FFE2CF21
:100F5000DAFF8AE980EB04F081EB05F082EB06F022
:100F600002500402F450016EF350006E0350076EFD
:100F70000502F450036EF350026E07500402F35062
:100F80000126F4500222E86A032206500502F350BB
:100F90000126F4500222E86A0322E552E5CFDAFF87
:100FA000E7CFD9FF46E9000C43E8D9CFE6FFDACF17
:100FB000E6FFE1CFD9FFE2CFDAFF89E9066A120046
:100FC000F3DF068003D0F0DF01D00682056A046AF1
:100FD000100EE76ED8900236033604360536005000
:100FE000045C0150055805E30050045E0150055AA9
:100FF000022AE72EF0D706B2120006B006D084EB24
:1010000000F085EB01F006A004D082EB00F083EB4A
:1010100001F0E552E5CFDAFFE7CFD9FF45E912004D
:101020001E0EF66E000EF76E000EF86E000109003F
:10103000F550356F0900F550366F03E1356701D083
:101040003DD00900F550306F0900F550316F0900AF
:10105000F550326F09000900F550E96E0900F550AE
:10106000EA6E090009000900F550336F0900F550D8
:10107000346F09000900F6CF37F0F7CF38F0F8CF1A
:1010800039F030C0F6FF31C0F7FF32C0F8FF000181
:10109000335302E1345307E00900F550EE6E330795
:1010A000F8E23407F9D737C0F6FF38C0F7FF39C088
:0E10B000F8FF00013507000E365BBFD71200B7
:0210BE00D9CF88
:1010C000E6FFDACFE6FFE1CFD9FFE2CFDAFF84E92E
:1010D00042E880EB04F081EB05F0060ED890043670
:1010E0000536E804FBE105EBBEFF0440E8423F0B98
:1010F000300B00011C6FCF0EBD141C11BD6E43E9F7
:0A110000E5CFDAFFE7CFD9FF1200B8
:06110A0043796265726486
:10111000796E6520284144504D29202D20536C6F55
:10112000744D616368696E65204C583333362031E5
:101130002E30302030392F30352F323200003F062C
:0D1140005B4F666D7D077F6F40496B5D7FE3
:02114E00FE0E93
:10115000E3CF48F0FF0EE3CF49F01200350EE66E04
:10116000450EE66E48C0E6FF49C0E6FFA0EC07F07A
:10117000E552E5CF49F0E7CF48F00001482BE86A97
:0E1180004923499F48C0F3FF49C0F4FF120005
:02118E00D9CFB7
:10119000E6FFDACFE6FFE1CFD9FFE2CFDAFF83E95E
:1011A0007E0E0014CD6E00AC02D0CD8E01D0CD9E4F
:1011B000CF6ACE6A9E9000AE02D09D8001D09D90F5
:0E11C000CD8041E9E5CFDAFFE7CFD9FF12007D
:0211CE00D9CF77
:1011D000E6FFDACFE6FFE1CFD9FFE2CFDAFF83E91E
:1011E0007F0E0014D56ED76AD66AF29400AE02D094
:1011F000F28A01D0F29AD58E41E9E5CFDAFFE7CF46
:04120000D9FF120000
:0C120400D9CFE6FFDACFE6FFE1CFD9FF3B
:10121000E2CFDAFF83E9FB0E0014CA6ECC6A9E921D
:1012200000AE02D09D8201D09D92CA8441E9E5CFF3
:08123000DAFFE7CFD9FF12003D
:08123800D9CFE6FFDACFE6FF93
:10124000E1CFD9FFE2CFDAFF83E90C0EBD1294940F
:10125000CA9400EBCBFFCA8441E9E5CFDAFFE7CFC0
:08126000D9FF12009494120062
:08126800800EF36E00EE00F0B1
:101270000F0E01D81200EA6002D0EE6AFCD7F350DC
:08128000E9601200EE6AFCD7E0
:081288001EEE00F02EEE00F056
:10129000F86A10EC08F003EC00F0BFEC00F0FBD7AC
:0212A00012003A
:0212A200010049
:0612A4000600000001033A
:020000040020DA
:080000000404040700000000E5
:020000040030CA
:0100010009F5
:010002001EDF
:010003001FDD
:010005008179
:01000600C138
:00000001FF
